{
    "_format": "hh-sol-artifact-1",
    "contractName": "StreamPayment",
    "sourceName": "contracts/StreamPayment.sol",
    "abi": [
        {
            "anonymous": false,
            "inputs": [
                {
                    "indexed": false,
                    "internalType": "address",
                    "name": "",
                    "type": "address"
                },
                {
                    "indexed": false,
                    "internalType": "uint256",
                    "name": "",
                    "type": "uint256"
                }
            ],
            "name": "StreamCreated",
            "type": "event"
        },
        {
            "inputs": [
                {
                    "internalType": "uint256",
                    "name": "streamID",
                    "type": "uint256"
                },
                {
                    "internalType": "uint256",
                    "name": "claimAmount",
                    "type": "uint256"
                }
            ],
            "name": "claimPayment",
            "outputs": [],
            "stateMutability": "nonpayable",
            "type": "function"
        },
        {
            "inputs": [
                {
                    "internalType": "uint256",
                    "name": "streamID",
                    "type": "uint256"
                }
            ],
            "name": "countValidClaimAmount",
            "outputs": [],
            "stateMutability": "nonpayable",
            "type": "function"
        },
        {
            "inputs": [
                {
                    "internalType": "string",
                    "name": "title",
                    "type": "string"
                },
                {
                    "internalType": "address",
                    "name": "payer",
                    "type": "address"
                },
                {
                    "internalType": "address",
                    "name": "receiver",
                    "type": "address"
                },
                {
                    "internalType": "address",
                    "name": "tokenAddress",
                    "type": "address"
                },
                {
                    "internalType": "uint256",
                    "name": "totalAmount",
                    "type": "uint256"
                },
                {
                    "internalType": "uint256",
                    "name": "startTime",
                    "type": "uint256"
                },
                {
                    "internalType": "uint256",
                    "name": "endTime",
                    "type": "uint256"
                }
            ],
            "name": "createStream",
            "outputs": [
                {
                    "internalType": "uint256",
                    "name": "",
                    "type": "uint256"
                }
            ],
            "stateMutability": "nonpayable",
            "type": "function"
        },
        {
            "inputs": [],
            "name": "getPayerStreamInfo",
            "outputs": [
                {
                    "components": [
                        {
                            "internalType": "string",
                            "name": "title",
                            "type": "string"
                        },
                        {
                            "internalType": "address",
                            "name": "payer",
                            "type": "address"
                        },
                        {
                            "internalType": "address",
                            "name": "receiver",
                            "type": "address"
                        },
                        {
                            "internalType": "address",
                            "name": "tokenAddress",
                            "type": "address"
                        },
                        {
                            "internalType": "uint256",
                            "name": "totalAmount",
                            "type": "uint256"
                        },
                        {
                            "internalType": "uint256",
                            "name": "claimedAmount",
                            "type": "uint256"
                        },
                        {
                            "internalType": "uint256",
                            "name": "validClaimAmount",
                            "type": "uint256"
                        },
                        {
                            "internalType": "uint256",
                            "name": "startTime",
                            "type": "uint256"
                        },
                        {
                            "internalType": "uint256",
                            "name": "endTime",
                            "type": "uint256"
                        },
                        {
                            "internalType": "uint256",
                            "name": "streamID",
                            "type": "uint256"
                        }
                    ],
                    "internalType": "struct StreamPayment.Stream[]",
                    "name": "",
                    "type": "tuple[]"
                }
            ],
            "stateMutability": "view",
            "type": "function"
        },
        {
            "inputs": [],
            "name": "getReceiverStreamInfo",
            "outputs": [
                {
                    "components": [
                        {
                            "internalType": "string",
                            "name": "title",
                            "type": "string"
                        },
                        {
                            "internalType": "address",
                            "name": "payer",
                            "type": "address"
                        },
                        {
                            "internalType": "address",
                            "name": "receiver",
                            "type": "address"
                        },
                        {
                            "internalType": "address",
                            "name": "tokenAddress",
                            "type": "address"
                        },
                        {
                            "internalType": "uint256",
                            "name": "totalAmount",
                            "type": "uint256"
                        },
                        {
                            "internalType": "uint256",
                            "name": "claimedAmount",
                            "type": "uint256"
                        },
                        {
                            "internalType": "uint256",
                            "name": "validClaimAmount",
                            "type": "uint256"
                        },
                        {
                            "internalType": "uint256",
                            "name": "startTime",
                            "type": "uint256"
                        },
                        {
                            "internalType": "uint256",
                            "name": "endTime",
                            "type": "uint256"
                        },
                        {
                            "internalType": "uint256",
                            "name": "streamID",
                            "type": "uint256"
                        }
                    ],
                    "internalType": "struct StreamPayment.Stream[]",
                    "name": "",
                    "type": "tuple[]"
                }
            ],
            "stateMutability": "view",
            "type": "function"
        },
        {
            "inputs": [
                {
                    "internalType": "address",
                    "name": "tokenAddress",
                    "type": "address"
                }
            ],
            "name": "isValidERC20Token",
            "outputs": [
                {
                    "internalType": "bool",
                    "name": "",
                    "type": "bool"
                }
            ],
            "stateMutability": "view",
            "type": "function"
        },
        {
            "inputs": [
                {
                    "internalType": "uint256",
                    "name": "",
                    "type": "uint256"
                }
            ],
            "name": "streams",
            "outputs": [
                {
                    "internalType": "string",
                    "name": "title",
                    "type": "string"
                },
                {
                    "internalType": "address",
                    "name": "payer",
                    "type": "address"
                },
                {
                    "internalType": "address",
                    "name": "receiver",
                    "type": "address"
                },
                {
                    "internalType": "address",
                    "name": "tokenAddress",
                    "type": "address"
                },
                {
                    "internalType": "uint256",
                    "name": "totalAmount",
                    "type": "uint256"
                },
                {
                    "internalType": "uint256",
                    "name": "claimedAmount",
                    "type": "uint256"
                },
                {
                    "internalType": "uint256",
                    "name": "validClaimAmount",
                    "type": "uint256"
                },
                {
                    "internalType": "uint256",
                    "name": "startTime",
                    "type": "uint256"
                },
                {
                    "internalType": "uint256",
                    "name": "endTime",
                    "type": "uint256"
                },
                {
                    "internalType": "uint256",
                    "name": "streamID",
                    "type": "uint256"
                }
            ],
            "stateMutability": "view",
            "type": "function"
        }
    ],
    "bytecode": "0x60806040526000805534801561001457600080fd5b50612a83806100246000396000f3fe608060405234801561001057600080fd5b506004361061007d5760003560e01c806364d60d911161005b57806364d60d91146100ea57806376ee873f14610123578063e364127f14610153578063fca25a2f146101715761007d565b806313ba6dcc14610082578063248b99571461009e57806334b8fd97146100ce575b600080fd5b61009c6004803603810190610097919061176a565b61018f565b005b6100b860048036038101906100b3919061193b565b610399565b6040516100c59190611a08565b60405180910390f35b6100e860048036038101906100e39190611a23565b610a2b565b005b61010460048036038101906100ff919061176a565b610d76565b60405161011a9a99989796959493929190611af1565b60405180910390f35b61013d60048036038101906101389190611b94565b610eb2565b60405161014a9190611bdc565b60405180910390f35b61015b610f3f565b6040516101689190611dfb565b60405180910390f35b6101796112e5565b6040516101869190611dfb565b60405180910390f35b3373ffffffffffffffffffffffffffffffffffffffff166001600083815260200190815260200160002060020160009054906101000a900473ffffffffffffffffffffffffffffffffffffffff1673ffffffffffffffffffffffffffffffffffffffff1614610233576040517f08c379a000000000000000000000000000000000000000000000000000000000815260040161022a90611e8f565b60405180910390fd5b600042905060016000838152602001908152602001600020600701548111610290576040517f08c379a000000000000000000000000000000000000000000000000000000000815260040161028790611f21565b60405180910390fd5b6000600160008481526020019081526020016000206008015482106102cd5760016000848152602001908152602001600020600401549050610355565b600160008481526020019081526020016000206007015460016000858152602001908152602001600020600801546103059190611f70565b6001600085815260200190815260200160002060070154836103279190611f70565b60016000868152602001908152602001600020600401546103489190611fa4565b6103529190612015565b90505b6001600084815260200190815260200160002060050154816103779190611f70565b9050806001600085815260200190815260200160002060060181905550505050565b60004283116103dd576040517f08c379a00000000000000000000000000000000000000000000000000000000081526004016103d490612092565b60405180910390fd5b42821161041f576040517f08c379a0000000000000000000000000000000000000000000000000000000008152600401610416906120fe565b60405180910390fd5b828211610461576040517f08c379a000000000000000000000000000000000000000000000000000000000815260040161045890612190565b60405180910390fd5b600073ffffffffffffffffffffffffffffffffffffffff168773ffffffffffffffffffffffffffffffffffffffff16036104d0576040517f08c379a00000000000000000000000000000000000000000000000000000000081526004016104c790612222565b60405180910390fd5b600073ffffffffffffffffffffffffffffffffffffffff168673ffffffffffffffffffffffffffffffffffffffff160361053f576040517f08c379a0000000000000000000000000000000000000000000000000000000008152600401610536906122b4565b60405180910390fd5b8573ffffffffffffffffffffffffffffffffffffffff168773ffffffffffffffffffffffffffffffffffffffff16036105ad576040517f08c379a00000000000000000000000000000000000000000000000000000000081526004016105a490612346565b60405180910390fd5b600084116105f0576040517f08c379a00000000000000000000000000000000000000000000000000000000081526004016105e7906123d8565b60405180910390fd5b600115156105fd86610eb2565b15151461063f576040517f08c379a00000000000000000000000000000000000000000000000000000000081526004016106369061246a565b60405180910390fd5b6000859050848173ffffffffffffffffffffffffffffffffffffffff166370a082318a6040518263ffffffff1660e01b815260040161067e919061248a565b602060405180830381865afa15801561069b573d6000803e3d6000fd5b505050506040513d601f19601f820116820180604052508101906106bf91906124ba565b1015610700576040517f08c379a00000000000000000000000000000000000000000000000000000000081526004016106f790612559565b60405180910390fd5b8073ffffffffffffffffffffffffffffffffffffffff166323b872dd8930886040518463ffffffff1660e01b815260040161073d93929190612579565b6020604051808303816000875af115801561075c573d6000803e3d6000fd5b505050506040513d601f19601f8201168201806040525081019061078091906125dc565b5061078961168b565b89816000018190525088816020019073ffffffffffffffffffffffffffffffffffffffff16908173ffffffffffffffffffffffffffffffffffffffff168152505087816040019073ffffffffffffffffffffffffffffffffffffffff16908173ffffffffffffffffffffffffffffffffffffffff168152505086816060019073ffffffffffffffffffffffffffffffffffffffff16908173ffffffffffffffffffffffffffffffffffffffff16815250508581608001818152505060008160a001818152505060008160c0018181525050848160e001818152505083816101000181815250506000548161012001818152505060008081548092919061088e90612609565b91905055508060016000836101200151815260200190815260200160002060008201518160000190816108c1919061285d565b5060208201518160010160006101000a81548173ffffffffffffffffffffffffffffffffffffffff021916908373ffffffffffffffffffffffffffffffffffffffff16021790555060408201518160020160006101000a81548173ffffffffffffffffffffffffffffffffffffffff021916908373ffffffffffffffffffffffffffffffffffffffff16021790555060608201518160030160006101000a81548173ffffffffffffffffffffffffffffffffffffffff021916908373ffffffffffffffffffffffffffffffffffffffff1602179055506080820151816004015560a0820151816005015560c0820151816006015560e08201518160070155610100820151816008015561012082015181600901559050507f1bd63527042f119292b792487cee2f3e2f788737aa8ce9c0b5e79a2e17bd6bab89826101200151604051610a0e92919061292f565b60405180910390a180610120015192505050979650505050505050565b3373ffffffffffffffffffffffffffffffffffffffff166001600084815260200190815260200160002060020160009054906101000a900473ffffffffffffffffffffffffffffffffffffffff1673ffffffffffffffffffffffffffffffffffffffff1614610acf576040517f08c379a0000000000000000000000000000000000000000000000000000000008152600401610ac690611e8f565b60405180910390fd5b600042905060016000848152602001908152602001600020600701548111610b2c576040517f08c379a0000000000000000000000000000000000000000000000000000000008152600401610b2390611f21565b60405180910390fd5b600060016000858152602001908152602001600020600801548210610b695760016000858152602001908152602001600020600401549050610bf1565b60016000858152602001908152602001600020600701546001600086815260200190815260200160002060080154610ba19190611f70565b600160008681526020019081526020016000206007015483610bc39190611f70565b6001600087815260200190815260200160002060040154610be49190611fa4565b610bee9190612015565b90505b600160008581526020019081526020016000206005015481610c139190611f70565b905080831115610c58576040517f08c379a0000000000000000000000000000000000000000000000000000000008152600401610c4f906129ca565b60405180910390fd5b6001600085815260200190815260200160002060030160009054906101000a900473ffffffffffffffffffffffffffffffffffffffff1673ffffffffffffffffffffffffffffffffffffffff1663a9059cbb6001600087815260200190815260200160002060020160009054906101000a900473ffffffffffffffffffffffffffffffffffffffff16856040518363ffffffff1660e01b8152600401610cff92919061292f565b6020604051808303816000875af1158015610d1e573d6000803e3d6000fd5b505050506040513d601f19601f82011682018060405250810190610d4291906125dc565b5082600160008681526020019081526020016000206005016000828254610d6991906129ea565b9250508190555050505050565b6001602052806000526040600020600091509050806000018054610d9990612680565b80601f0160208091040260200160405190810160405280929190818152602001828054610dc590612680565b8015610e125780601f10610de757610100808354040283529160200191610e12565b820191906000526020600020905b815481529060010190602001808311610df557829003601f168201915b5050505050908060010160009054906101000a900473ffffffffffffffffffffffffffffffffffffffff16908060020160009054906101000a900473ffffffffffffffffffffffffffffffffffffffff16908060030160009054906101000a900473ffffffffffffffffffffffffffffffffffffffff1690806004015490806005015490806006015490806007015490806008015490806009015490508a565b600080823b9050600081118015610f37575060008373ffffffffffffffffffffffffffffffffffffffff166318160ddd6040518163ffffffff1660e01b8152600401602060405180830381865afa158015610f11573d6000803e3d6000fd5b505050506040513d601f19601f82011682018060405250810190610f3591906124ba565b115b915050919050565b60606000805b600054811015610fda573373ffffffffffffffffffffffffffffffffffffffff166001600083815260200190815260200160002060020160009054906101000a900473ffffffffffffffffffffffffffffffffffffffff1673ffffffffffffffffffffffffffffffffffffffff1603610fc7578180610fc390612609565b9250505b8080610fd290612609565b915050610f45565b5060008167ffffffffffffffff811115610ff757610ff66117b2565b5b60405190808252806020026020018201604052801561103057816020015b61101d61168b565b8152602001906001900390816110155790505b5090506000915060005b6000548110156112dc573373ffffffffffffffffffffffffffffffffffffffff166001600083815260200190815260200160002060020160009054906101000a900473ffffffffffffffffffffffffffffffffffffffff1673ffffffffffffffffffffffffffffffffffffffff16036112c95760016000828152602001908152602001600020604051806101400160405290816000820180546110dc90612680565b80601f016020809104026020016040519081016040528092919081815260200182805461110890612680565b80156111555780601f1061112a57610100808354040283529160200191611155565b820191906000526020600020905b81548152906001019060200180831161113857829003601f168201915b505050505081526020016001820160009054906101000a900473ffffffffffffffffffffffffffffffffffffffff1673ffffffffffffffffffffffffffffffffffffffff1673ffffffffffffffffffffffffffffffffffffffff1681526020016002820160009054906101000a900473ffffffffffffffffffffffffffffffffffffffff1673ffffffffffffffffffffffffffffffffffffffff1673ffffffffffffffffffffffffffffffffffffffff1681526020016003820160009054906101000a900473ffffffffffffffffffffffffffffffffffffffff1673ffffffffffffffffffffffffffffffffffffffff1673ffffffffffffffffffffffffffffffffffffffff16815260200160048201548152602001600582015481526020016006820154815260200160078201548152602001600882015481526020016009820154815250508284815181106112af576112ae612a1e565b5b602002602001018190525082806112c590612609565b9350505b80806112d490612609565b91505061103a565b50809250505090565b60606000805b600054811015611380573373ffffffffffffffffffffffffffffffffffffffff166001600083815260200190815260200160002060010160009054906101000a900473ffffffffffffffffffffffffffffffffffffffff1673ffffffffffffffffffffffffffffffffffffffff160361136d57818061136990612609565b9250505b808061137890612609565b9150506112eb565b5060008167ffffffffffffffff81111561139d5761139c6117b2565b5b6040519080825280602002602001820160405280156113d657816020015b6113c361168b565b8152602001906001900390816113bb5790505b5090506000915060005b600054811015611682573373ffffffffffffffffffffffffffffffffffffffff166001600083815260200190815260200160002060010160009054906101000a900473ffffffffffffffffffffffffffffffffffffffff1673ffffffffffffffffffffffffffffffffffffffff160361166f57600160008281526020019081526020016000206040518061014001604052908160008201805461148290612680565b80601f01602080910402602001604051908101604052809291908181526020018280546114ae90612680565b80156114fb5780601f106114d0576101008083540402835291602001916114fb565b820191906000526020600020905b8154815290600101906020018083116114de57829003601f168201915b505050505081526020016001820160009054906101000a900473ffffffffffffffffffffffffffffffffffffffff1673ffffffffffffffffffffffffffffffffffffffff1673ffffffffffffffffffffffffffffffffffffffff1681526020016002820160009054906101000a900473ffffffffffffffffffffffffffffffffffffffff1673ffffffffffffffffffffffffffffffffffffffff1673ffffffffffffffffffffffffffffffffffffffff1681526020016003820160009054906101000a900473ffffffffffffffffffffffffffffffffffffffff1673ffffffffffffffffffffffffffffffffffffffff1673ffffffffffffffffffffffffffffffffffffffff168152602001600482015481526020016005820154815260200160068201548152602001600782015481526020016008820154815260200160098201548152505082848151811061165557611654612a1e565b5b6020026020010181905250828061166b90612609565b9350505b808061167a90612609565b9150506113e0565b50809250505090565b60405180610140016040528060608152602001600073ffffffffffffffffffffffffffffffffffffffff168152602001600073ffffffffffffffffffffffffffffffffffffffff168152602001600073ffffffffffffffffffffffffffffffffffffffff1681526020016000815260200160008152602001600081526020016000815260200160008152602001600081525090565b6000604051905090565b600080fd5b600080fd5b6000819050919050565b61174781611734565b811461175257600080fd5b50565b6000813590506117648161173e565b92915050565b6000602082840312156117805761177f61172a565b5b600061178e84828501611755565b91505092915050565b600080fd5b600080fd5b6000601f19601f8301169050919050565b7f4e487b7100000000000000000000000000000000000000000000000000000000600052604160045260246000fd5b6117ea826117a1565b810181811067ffffffffffffffff82111715611809576118086117b2565b5b80604052505050565b600061181c611720565b905061182882826117e1565b919050565b600067ffffffffffffffff821115611848576118476117b2565b5b611851826117a1565b9050602081019050919050565b82818337600083830152505050565b600061188061187b8461182d565b611812565b90508281526020810184848401111561189c5761189b61179c565b5b6118a784828561185e565b509392505050565b600082601f8301126118c4576118c3611797565b5b81356118d484826020860161186d565b91505092915050565b600073ffffffffffffffffffffffffffffffffffffffff82169050919050565b6000611908826118dd565b9050919050565b611918816118fd565b811461192357600080fd5b50565b6000813590506119358161190f565b92915050565b600080600080600080600060e0888a03121561195a5761195961172a565b5b600088013567ffffffffffffffff8111156119785761197761172f565b5b6119848a828b016118af565b97505060206119958a828b01611926565b96505060406119a68a828b01611926565b95505060606119b78a828b01611926565b94505060806119c88a828b01611755565b93505060a06119d98a828b01611755565b92505060c06119ea8a828b01611755565b91505092959891949750929550565b611a0281611734565b82525050565b6000602082019050611a1d60008301846119f9565b92915050565b60008060408385031215611a3a57611a3961172a565b5b6000611a4885828601611755565b9250506020611a5985828601611755565b9150509250929050565b600081519050919050565b600082825260208201905092915050565b60005b83811015611a9d578082015181840152602081019050611a82565b60008484015250505050565b6000611ab482611a63565b611abe8185611a6e565b9350611ace818560208601611a7f565b611ad7816117a1565b840191505092915050565b611aeb816118fd565b82525050565b6000610140820190508181036000830152611b0c818d611aa9565b9050611b1b602083018c611ae2565b611b28604083018b611ae2565b611b35606083018a611ae2565b611b4260808301896119f9565b611b4f60a08301886119f9565b611b5c60c08301876119f9565b611b6960e08301866119f9565b611b776101008301856119f9565b611b856101208301846119f9565b9b9a5050505050505050505050565b600060208284031215611baa57611ba961172a565b5b6000611bb884828501611926565b91505092915050565b60008115159050919050565b611bd681611bc1565b82525050565b6000602082019050611bf16000830184611bcd565b92915050565b600081519050919050565b600082825260208201905092915050565b6000819050602082019050919050565b600082825260208201905092915050565b6000611c3f82611a63565b611c498185611c23565b9350611c59818560208601611a7f565b611c62816117a1565b840191505092915050565b611c76816118fd565b82525050565b611c8581611734565b82525050565b6000610140830160008301518482036000860152611ca98282611c34565b9150506020830151611cbe6020860182611c6d565b506040830151611cd16040860182611c6d565b506060830151611ce46060860182611c6d565b506080830151611cf76080860182611c7c565b5060a0830151611d0a60a0860182611c7c565b5060c0830151611d1d60c0860182611c7c565b5060e0830151611d3060e0860182611c7c565b50610100830151611d45610100860182611c7c565b50610120830151611d5a610120860182611c7c565b508091505092915050565b6000611d718383611c8b565b905092915050565b6000602082019050919050565b6000611d9182611bf7565b611d9b8185611c02565b935083602082028501611dad85611c13565b8060005b85811015611de95784840389528151611dca8582611d65565b9450611dd583611d79565b925060208a01995050600181019050611db1565b50829750879550505050505092915050565b60006020820190508181036000830152611e158184611d86565b905092915050565b7f546869732073747265616d49442773207265636569766572206973206e6f742060008201527f796f752c20796f752063616e6e6f7420636c61696d2074686520617373657400602082015250565b6000611e79603f83611a6e565b9150611e8482611e1d565b604082019050919050565b60006020820190508181036000830152611ea881611e6c565b9050919050565b7f546865207061796d656e74206e6f74207965742073746172742c20796f75206360008201527f616e277420636c61696d20697400000000000000000000000000000000000000602082015250565b6000611f0b602d83611a6e565b9150611f1682611eaf565b604082019050919050565b60006020820190508181036000830152611f3a81611efe565b9050919050565b7f4e487b7100000000000000000000000000000000000000000000000000000000600052601160045260246000fd5b6000611f7b82611734565b9150611f8683611734565b9250828203905081811115611f9e57611f9d611f41565b5b92915050565b6000611faf82611734565b9150611fba83611734565b9250828202611fc881611734565b91508282048414831517611fdf57611fde611f41565b5b5092915050565b7f4e487b7100000000000000000000000000000000000000000000000000000000600052601260045260246000fd5b600061202082611734565b915061202b83611734565b92508261203b5761203a611fe6565b5b828204905092915050565b7f53746172742074696d6520697320696e20746865207061737400000000000000600082015250565b600061207c601983611a6e565b915061208782612046565b602082019050919050565b600060208201905081810360008301526120ab8161206f565b9050919050565b7f456e642074696d6520697320696e207468652070617374000000000000000000600082015250565b60006120e8601783611a6e565b91506120f3826120b2565b602082019050919050565b60006020820190508181036000830152612117816120db565b9050919050565b7f456e642074696d652073686f756c64206265206c61746572207468616e20737460008201527f6172742074696d65000000000000000000000000000000000000000000000000602082015250565b600061217a602883611a6e565b91506121858261211e565b604082019050919050565b600060208201905081810360008301526121a98161216d565b9050919050565b7f706179657220616464726573732073686f756c64206e6f74206265207a65726f60008201527f2061646472657373000000000000000000000000000000000000000000000000602082015250565b600061220c602883611a6e565b9150612217826121b0565b604082019050919050565b6000602082019050818103600083015261223b816121ff565b9050919050565b7f726563656976657220616464726573732073686f756c64206e6f74206265207a60008201527f65726f2061646472657373000000000000000000000000000000000000000000602082015250565b600061229e602b83611a6e565b91506122a982612242565b604082019050919050565b600060208201905081810360008301526122cd81612291565b9050919050565b7f50617965722073686f756c64206e6f74206265207468652073616d652061732060008201527f7265636569766572000000000000000000000000000000000000000000000000602082015250565b6000612330602883611a6e565b915061233b826122d4565b604082019050919050565b6000602082019050818103600083015261235f81612323565b9050919050565b7f5472616e7366657220616d6f756e74206f662074686520746f6b656e2073686f60008201527f756c642062652067726561746572207468616e207a65726f0000000000000000602082015250565b60006123c2603883611a6e565b91506123cd82612366565b604082019050919050565b600060208201905081810360008301526123f1816123b5565b9050919050565b7f546f6b656e2061646472657373206973206e6f7420612076616c69642045524360008201527f323020746f6b656e000000000000000000000000000000000000000000000000602082015250565b6000612454602883611a6e565b915061245f826123f8565b604082019050919050565b6000602082019050818103600083015261248381612447565b9050919050565b600060208201905061249f6000830184611ae2565b92915050565b6000815190506124b48161173e565b92915050565b6000602082840312156124d0576124cf61172a565b5b60006124de848285016124a5565b91505092915050565b7f546865207061796572277320746f6b656e20616d6f756e74206973206e6f742060008201527f656e6f75676820746f20637265617465207468652073747265616d0000000000602082015250565b6000612543603b83611a6e565b915061254e826124e7565b604082019050919050565b6000602082019050818103600083015261257281612536565b9050919050565b600060608201905061258e6000830186611ae2565b61259b6020830185611ae2565b6125a860408301846119f9565b949350505050565b6125b981611bc1565b81146125c457600080fd5b50565b6000815190506125d6816125b0565b92915050565b6000602082840312156125f2576125f161172a565b5b6000612600848285016125c7565b91505092915050565b600061261482611734565b91507fffffffffffffffffffffffffffffffffffffffffffffffffffffffffffffffff820361264657612645611f41565b5b600182019050919050565b7f4e487b7100000000000000000000000000000000000000000000000000000000600052602260045260246000fd5b6000600282049050600182168061269857607f821691505b6020821081036126ab576126aa612651565b5b50919050565b60008190508160005260206000209050919050565b60006020601f8301049050919050565b600082821b905092915050565b6000600883026127137fffffffffffffffffffffffffffffffffffffffffffffffffffffffffffffffff826126d6565b61271d86836126d6565b95508019841693508086168417925050509392505050565b6000819050919050565b600061275a61275561275084611734565b612735565b611734565b9050919050565b6000819050919050565b6127748361273f565b61278861278082612761565b8484546126e3565b825550505050565b600090565b61279d612790565b6127a881848461276b565b505050565b5b818110156127cc576127c1600082612795565b6001810190506127ae565b5050565b601f821115612811576127e2816126b1565b6127eb846126c6565b810160208510156127fa578190505b61280e612806856126c6565b8301826127ad565b50505b505050565b600082821c905092915050565b600061283460001984600802612816565b1980831691505092915050565b600061284d8383612823565b9150826002028217905092915050565b61286682611a63565b67ffffffffffffffff81111561287f5761287e6117b2565b5b6128898254612680565b6128948282856127d0565b600060209050601f8311600181146128c757600084156128b5578287015190505b6128bf8582612841565b865550612927565b601f1984166128d5866126b1565b60005b828110156128fd578489015182556001820191506020850194506020810190506128d8565b8683101561291a5784890151612916601f891682612823565b8355505b6001600288020188555050505b505050505050565b60006040820190506129446000830185611ae2565b61295160208301846119f9565b9392505050565b7f636c61696d416d6f756e74206c6172676572207468616e2076616c6964436c6160008201527f696d416d6f756e74000000000000000000000000000000000000000000000000602082015250565b60006129b4602883611a6e565b91506129bf82612958565b604082019050919050565b600060208201905081810360008301526129e3816129a7565b9050919050565b60006129f582611734565b9150612a0083611734565b9250828201905080821115612a1857612a17611f41565b5b92915050565b7f4e487b7100000000000000000000000000000000000000000000000000000000600052603260045260246000fdfea2646970667358221220771104859af6c08f962f6e907dd3437f74324d6fea3f1d998a95d26ecc03e08b64736f6c63430008120033",
    "linkReferences": {},
    "deployedLinkReferences": {}
}